{
  "abi": [
    {
      "inputs": [
        {
          "internalType": "contract IWorldID",
          "name": "_worldId",
          "type": "address"
        },
        {
          "internalType": "address",
          "name": "_admin",
          "type": "address"
        }
      ],
      "stateMutability": "nonpayable",
      "type": "constructor"
    },
    {
      "inputs": [],
      "name": "AD_NOT_AVAILABLE",
      "type": "error"
    },
    {
      "inputs": [],
      "name": "INCORRECT_VALUE",
      "type": "error"
    },
    {
      "inputs": [],
      "name": "InvalidNullifier",
      "type": "error"
    },
    {
      "inputs": [],
      "name": "NOT_ADMIN",
      "type": "error"
    },
    {
      "anonymous": false,
      "inputs": [
        {
          "indexed": false,
          "internalType": "string",
          "name": "hash",
          "type": "string"
        },
        {
          "indexed": false,
          "internalType": "uint256",
          "name": "timestamp",
          "type": "uint256"
        }
      ],
      "name": "Funded",
      "type": "event"
    },
    {
      "anonymous": false,
      "inputs": [
        {
          "indexed": false,
          "internalType": "string",
          "name": "hash",
          "type": "string"
        }
      ],
      "name": "NewAd",
      "type": "event"
    },
    {
      "inputs": [
        {
          "internalType": "string",
          "name": "",
          "type": "string"
        }
      ],
      "name": "Adhash",
      "outputs": [
        {
          "internalType": "bool",
          "name": "",
          "type": "bool"
        }
      ],
      "stateMutability": "view",
      "type": "function"
    },
    {
      "inputs": [
        {
          "internalType": "string",
          "name": "_hash",
          "type": "string"
        },
        {
          "internalType": "uint256",
          "name": "_nullifierHash",
          "type": "uint256"
        }
      ],
      "name": "Cost",
      "outputs": [
        {
          "internalType": "uint256",
          "name": "",
          "type": "uint256"
        }
      ],
      "stateMutability": "view",
      "type": "function"
    },
    {
      "inputs": [
        {
          "internalType": "string",
          "name": "_hash",
          "type": "string"
        },
        {
          "internalType": "string",
          "name": "signal",
          "type": "string"
        },
        {
          "internalType": "uint256",
          "name": "root",
          "type": "uint256"
        },
        {
          "internalType": "uint256",
          "name": "_nullifierHash",
          "type": "uint256"
        },
        {
          "internalType": "uint256[8]",
          "name": "proof",
          "type": "uint256[8]"
        }
      ],
      "name": "Fund",
      "outputs": [],
      "stateMutability": "payable",
      "type": "function"
    },
    {
      "inputs": [
        {
          "internalType": "uint256",
          "name": "",
          "type": "uint256"
        },
        {
          "internalType": "string",
          "name": "",
          "type": "string"
        }
      ],
      "name": "IdentitytoHashtoCounter",
      "outputs": [
        {
          "internalType": "uint256",
          "name": "",
          "type": "uint256"
        }
      ],
      "stateMutability": "view",
      "type": "function"
    },
    {
      "inputs": [],
      "name": "admin",
      "outputs": [
        {
          "internalType": "address",
          "name": "",
          "type": "address"
        }
      ],
      "stateMutability": "view",
      "type": "function"
    },
    {
      "inputs": [
        {
          "internalType": "string",
          "name": "_hash",
          "type": "string"
        }
      ],
      "name": "approveAd",
      "outputs": [],
      "stateMutability": "nonpayable",
      "type": "function"
    },
    {
      "inputs": [],
      "name": "groupId",
      "outputs": [
        {
          "internalType": "uint256",
          "name": "",
          "type": "uint256"
        }
      ],
      "stateMutability": "view",
      "type": "function"
    },
    {
      "inputs": [
        {
          "internalType": "string",
          "name": "",
          "type": "string"
        }
      ],
      "name": "weightage",
      "outputs": [
        {
          "internalType": "uint256",
          "name": "",
          "type": "uint256"
        }
      ],
      "stateMutability": "view",
      "type": "function"
    }
  ],
  "bytecode": {
    "object": "0x60a0604052600160005534801561001557600080fd5b50604051610a5c380380610a5c83398101604081905261003491610074565b6001600160a01b03918216608052600580546001600160a01b031916919092161790556100ae565b6001600160a01b038116811461007157600080fd5b50565b6000806040838503121561008757600080fd5b82516100928161005c565b60208401519092506100a38161005c565b809150509250929050565b6080516109936100c9600039600061031001526109936000f3fe60806040526004361061007b5760003560e01c8063d64419831161004e578063d64419831461014e578063f38d0bdc14610161578063f5509e0d146101aa578063f851a440146101ca57600080fd5b806341551999146100805780639b4db1dc146100d0578063a0f44c9214610116578063cfa79bd81461012c575b600080fd5b34801561008c57600080fd5b506100bb61009b366004610617565b805160208183018101805160028252928201919093012091525460ff1681565b60405190151581526020015b60405180910390f35b3480156100dc57600080fd5b506101086100eb366004610617565b805160208183018101805160038252928201919093012091525481565b6040519081526020016100c7565b34801561012257600080fd5b5061010860005481565b34801561013857600080fd5b5061014c61014736600461069d565b610202565b005b61014c61015c3660046106df565b61029d565b34801561016d57600080fd5b5061010861017c36600461077c565b6004602090815260009283526040909220815180830184018051928152908401929093019190912091525481565b3480156101b657600080fd5b506101086101c53660046107c3565b6104e4565b3480156101d657600080fd5b506005546101ea906001600160a01b031681565b6040516001600160a01b0390911681526020016100c7565b6005546001600160a01b0316331461022d57604051636209c08b60e01b815260040160405180910390fd5b60016002838360405161024192919061080f565b908152604051908190036020018120805492151560ff19909316929092179091557f0856641813559d923d33c2e1f4a4f6c25204dc60aba779270f9b6588787b9cac906102919084908490610848565b60405180910390a15050565b600287876040516102af92919061080f565b9081526040519081900360200190205460ff166102df576040516345b25b3160e01b815260040160405180910390fd5b60006102ec8888856104e4565b905080341461030e57604051639083ad5f60e01b815260040160405180910390fd5b7f00000000000000000000000000000000000000000000000000000000000000006001600160a01b0316633bc778e38560005461036b8a8a60405160200161035792919061080f565b60405160208183030381529060405261053f565b876103b7604051602001610357907f7769645f73746167696e675f633238313339386234373664303664313432366281526b62323234326330356130373360a01b6020820152602c0190565b886040518763ffffffff1660e01b81526004016103d99695949392919061085c565b60006040518083038186803b1580156103f157600080fd5b505afa158015610405573d6000803e3d6000fd5b5050505060046000848152602001908152602001600020888860405161042c92919061080f565b9081526040519081900360200190208054906000610449836108ae565b91905055506003888860405161046092919061080f565b908152604051908190036020019020805490600061047d836108ae565b91905055507f1475cf49110ef35afefc92dde1984c7d40a8e65a99112746141084e56376447e888860038b8b6040516104b792919061080f565b908152604051908190036020018120546104d29392916108c7565b60405180910390a15050505050505050565b6000818152600460205260408082209051829190610505908790879061080f565b90815260405190819003602001902054905060006105248260016108eb565b61053590662386f26fc10000610903565b9695505050505050565b60006008826040516020016105549190610922565b60408051601f198184030181529190528051602090910120901c92915050565b634e487b7160e01b600052604160045260246000fd5b600082601f83011261059b57600080fd5b813567ffffffffffffffff808211156105b6576105b6610574565b604051601f8301601f19908116603f011681019082821181831017156105de576105de610574565b816040528381528660208588010111156105f757600080fd5b836020870160208301376000602085830101528094505050505092915050565b60006020828403121561062957600080fd5b813567ffffffffffffffff81111561064057600080fd5b61064c8482850161058a565b949350505050565b60008083601f84011261066657600080fd5b50813567ffffffffffffffff81111561067e57600080fd5b60208301915083602082850101111561069657600080fd5b9250929050565b600080602083850312156106b057600080fd5b823567ffffffffffffffff8111156106c757600080fd5b6106d385828601610654565b90969095509350505050565b600080600080600080600061018080898b0312156106fc57600080fd5b883567ffffffffffffffff8082111561071457600080fd5b6107208c838d01610654565b909a50985060208b013591508082111561073957600080fd5b506107468b828c01610654565b90975095505060408901359350606089013592508089018a101561076957600080fd5b5060808801905092959891949750929550565b6000806040838503121561078f57600080fd5b82359150602083013567ffffffffffffffff8111156107ad57600080fd5b6107b98582860161058a565b9150509250929050565b6000806000604084860312156107d857600080fd5b833567ffffffffffffffff8111156107ef57600080fd5b6107fb86828701610654565b909790965060209590950135949350505050565b8183823760009101908152919050565b81835281816020850137506000828201602090810191909152601f909101601f19169091010190565b60208152600061064c60208301848661081f565b60006101a0820190508782528660208301528560408301528460608301528360808301526101008360a084013760008152979650505050505050565b634e487b7160e01b600052601160045260246000fd5b6000600182016108c0576108c0610898565b5060010190565b6040815260006108db60408301858761081f565b9050826020830152949350505050565b600082198211156108fe576108fe610898565b500190565b600081600019048311821515161561091d5761091d610898565b500290565b6000825160005b818110156109435760208186018101518583015201610929565b81811115610952576000828501525b50919091019291505056fea26469706673582212201510da4953a21291923f01ae4ae56b1274e38f5acc3a8f6392186799cd51c6d164736f6c634300080f0033",
    "linkReferences": {}
  },
  "methodIdentifiers": {
    "Adhash(string)": "41551999",
    "Cost(string,uint256)": "f5509e0d",
    "Fund(string,string,uint256,uint256,uint256[8])": "d6441983",
    "IdentitytoHashtoCounter(uint256,string)": "f38d0bdc",
    "admin()": "f851a440",
    "approveAd(string)": "cfa79bd8",
    "groupId()": "a0f44c92",
    "weightage(string)": "9b4db1dc"
  },
  "id": 0
}