{
  "abi": [
    {
      "inputs": [
        {
          "internalType": "contract IWorldID",
          "name": "_worldId",
          "type": "address"
        },
        {
          "internalType": "address",
          "name": "_admin",
          "type": "address"
        }
      ],
      "stateMutability": "nonpayable",
      "type": "constructor"
    },
    {
      "inputs": [],
      "name": "AD_NOT_AVAILABLE",
      "type": "error"
    },
    {
      "inputs": [],
      "name": "INCORRECT_VALUE",
      "type": "error"
    },
    {
      "inputs": [],
      "name": "InvalidNullifier",
      "type": "error"
    },
    {
      "inputs": [],
      "name": "NOT_ADMIN",
      "type": "error"
    },
    {
      "anonymous": false,
      "inputs": [
        {
          "indexed": true,
          "internalType": "string",
          "name": "hash",
          "type": "string"
        },
        {
          "indexed": false,
          "internalType": "uint256",
          "name": "timestamp",
          "type": "uint256"
        }
      ],
      "name": "Funded",
      "type": "event"
    },
    {
      "anonymous": false,
      "inputs": [
        {
          "indexed": true,
          "internalType": "string",
          "name": "hash",
          "type": "string"
        }
      ],
      "name": "NewAd",
      "type": "event"
    },
    {
      "inputs": [
        {
          "internalType": "string",
          "name": "",
          "type": "string"
        }
      ],
      "name": "Adhash",
      "outputs": [
        {
          "internalType": "bool",
          "name": "",
          "type": "bool"
        }
      ],
      "stateMutability": "view",
      "type": "function"
    },
    {
      "inputs": [
        {
          "internalType": "string",
          "name": "_hash",
          "type": "string"
        },
        {
          "internalType": "uint256",
          "name": "_nullifierHash",
          "type": "uint256"
        }
      ],
      "name": "Cost",
      "outputs": [
        {
          "internalType": "uint256",
          "name": "",
          "type": "uint256"
        }
      ],
      "stateMutability": "view",
      "type": "function"
    },
    {
      "inputs": [
        {
          "internalType": "string",
          "name": "_hash",
          "type": "string"
        },
        {
          "internalType": "string",
          "name": "signal",
          "type": "string"
        },
        {
          "internalType": "uint256",
          "name": "root",
          "type": "uint256"
        },
        {
          "internalType": "uint256",
          "name": "_nullifierHash",
          "type": "uint256"
        },
        {
          "internalType": "uint256[8]",
          "name": "proof",
          "type": "uint256[8]"
        }
      ],
      "name": "Fund",
      "outputs": [],
      "stateMutability": "payable",
      "type": "function"
    },
    {
      "inputs": [
        {
          "internalType": "uint256",
          "name": "",
          "type": "uint256"
        },
        {
          "internalType": "string",
          "name": "",
          "type": "string"
        }
      ],
      "name": "IdentitytoHashtoCounter",
      "outputs": [
        {
          "internalType": "uint256",
          "name": "",
          "type": "uint256"
        }
      ],
      "stateMutability": "view",
      "type": "function"
    },
    {
      "inputs": [],
      "name": "admin",
      "outputs": [
        {
          "internalType": "address",
          "name": "",
          "type": "address"
        }
      ],
      "stateMutability": "view",
      "type": "function"
    },
    {
      "inputs": [
        {
          "internalType": "string",
          "name": "_hash",
          "type": "string"
        }
      ],
      "name": "approveAd",
      "outputs": [],
      "stateMutability": "nonpayable",
      "type": "function"
    },
    {
      "inputs": [
        {
          "internalType": "string",
          "name": "",
          "type": "string"
        }
      ],
      "name": "weightage",
      "outputs": [
        {
          "internalType": "uint256",
          "name": "",
          "type": "uint256"
        }
      ],
      "stateMutability": "view",
      "type": "function"
    }
  ],
  "bytecode": {
    "object": "0x60c0604052600160a05234801561001557600080fd5b506040516109ae3803806109ae83398101604081905261003491610074565b6001600160a01b03918216608052600480546001600160a01b031916919092161790556100ae565b6001600160a01b038116811461007157600080fd5b50565b6000806040838503121561008757600080fd5b82516100928161005c565b60208401519092506100a38161005c565b809150509250929050565b60805160a0516108db6100d36000396000610324015260006102f401526108db6000f3fe6080604052600436106100705760003560e01c8063d64419831161004e578063d64419831461012d578063f38d0bdc14610140578063f5509e0d14610189578063f851a440146101a957600080fd5b806341551999146100755780639b4db1dc146100c5578063cfa79bd81461010b575b600080fd5b34801561008157600080fd5b506100b06100903660046105c0565b805160208183018101805160018252928201919093012091525460ff1681565b60405190151581526020015b60405180910390f35b3480156100d157600080fd5b506100fd6100e03660046105c0565b805160208183018101805160028252928201919093012091525481565b6040519081526020016100bc565b34801561011757600080fd5b5061012b610126366004610646565b6101e1565b005b61012b61013b366004610688565b610281565b34801561014c57600080fd5b506100fd61015b366004610725565b6003602090815260009283526040909220815180830184018051928152908401929093019190912091525481565b34801561019557600080fd5b506100fd6101a436600461076c565b61048d565b3480156101b557600080fd5b506004546101c9906001600160a01b031681565b6040516001600160a01b0390911681526020016100bc565b6004546001600160a01b0316331461020c57604051636209c08b60e01b815260040160405180910390fd5b600180838360405161021f9291906107b8565b908152604051908190036020018120805492151560ff199093169290921790915561024d90839083906107b8565b604051908190038120907f0856641813559d923d33c2e1f4a4f6c25204dc60aba779270f9b6588787b9cac90600090a25050565b600187876040516102939291906107b8565b9081526040519081900360200190205460ff166102c3576040516345b25b3160e01b815260040160405180910390fd5b60006102d088888561048d565b90508034146102f257604051639083ad5f60e01b815260040160405180910390fd5b7f00000000000000000000000000000000000000000000000000000000000000006001600160a01b0316633bc778e3857f000000000000000000000000000000000000000000000000000000000000000061036d8a8a6040516020016103599291906107b8565b6040516020818303038152906040526104e8565b6040516bffffffffffffffffffffffff193060601b166020820152889061039690603401610359565b886040518763ffffffff1660e01b81526004016103b8969594939291906107c8565b60006040518083038186803b1580156103d057600080fd5b505afa1580156103e4573d6000803e3d6000fd5b50505050600288886040516103fa9291906107b8565b90815260405190819003602001902080549060006104178361081a565b9190505550878760405161042c9291906107b8565b60405180910390207f1475cf49110ef35afefc92dde1984c7d40a8e65a99112746141084e56376447e60028a8a6040516104679291906107b8565b908152604051602091819003820181205481520160405180910390a25050505050505050565b60008181526003602052604080822090518291906104ae90879087906107b8565b90815260405190819003602001902054905060006104cd826001610833565b6104de90662386f26fc1000061084b565b9695505050505050565b60006008826040516020016104fd919061086a565b60408051601f198184030181529190528051602090910120901c92915050565b634e487b7160e01b600052604160045260246000fd5b600082601f83011261054457600080fd5b813567ffffffffffffffff8082111561055f5761055f61051d565b604051601f8301601f19908116603f011681019082821181831017156105875761058761051d565b816040528381528660208588010111156105a057600080fd5b836020870160208301376000602085830101528094505050505092915050565b6000602082840312156105d257600080fd5b813567ffffffffffffffff8111156105e957600080fd5b6105f584828501610533565b949350505050565b60008083601f84011261060f57600080fd5b50813567ffffffffffffffff81111561062757600080fd5b60208301915083602082850101111561063f57600080fd5b9250929050565b6000806020838503121561065957600080fd5b823567ffffffffffffffff81111561067057600080fd5b61067c858286016105fd565b90969095509350505050565b600080600080600080600061018080898b0312156106a557600080fd5b883567ffffffffffffffff808211156106bd57600080fd5b6106c98c838d016105fd565b909a50985060208b01359150808211156106e257600080fd5b506106ef8b828c016105fd565b90975095505060408901359350606089013592508089018a101561071257600080fd5b5060808801905092959891949750929550565b6000806040838503121561073857600080fd5b82359150602083013567ffffffffffffffff81111561075657600080fd5b61076285828601610533565b9150509250929050565b60008060006040848603121561078157600080fd5b833567ffffffffffffffff81111561079857600080fd5b6107a4868287016105fd565b909790965060209590950135949350505050565b8183823760009101908152919050565b60006101a0820190508782528660208301528560408301528460608301528360808301526101008360a084013760008152979650505050505050565b634e487b7160e01b600052601160045260246000fd5b60006001820161082c5761082c610804565b5060010190565b6000821982111561084657610846610804565b500190565b600081600019048311821515161561086557610865610804565b500290565b6000825160005b8181101561088b5760208186018101518583015201610871565b8181111561089a576000828501525b50919091019291505056fea26469706673582212209508e8916553c0ddbac368266065fa1aedbdbf65628a31c03e152ed83d481daa64736f6c634300080f0033",
    "linkReferences": {}
  },
  "methodIdentifiers": {
    "Adhash(string)": "41551999",
    "Cost(string,uint256)": "f5509e0d",
    "Fund(string,string,uint256,uint256,uint256[8])": "d6441983",
    "IdentitytoHashtoCounter(uint256,string)": "f38d0bdc",
    "admin()": "f851a440",
    "approveAd(string)": "cfa79bd8",
    "weightage(string)": "9b4db1dc"
  },
  "id": 0
}